:100000000C942A000C9447000C9447000C94470071
:100010000C9447000C9447000C9447000C94470044
:100020000C9447000C9447000C9447000C94470034
:100030000C9447000C9447000C9447000C94470024
:100040000C9447000C9447000C9447000C94470014
:100050000C94470011241FBECFE5D8E0DEBFCDBF12
:1000600010E0A0E6B0E0EEEFF2E002C005900D92E5
:10007000A436B107D9F720E0A4E6B0E001C01D9294
:10008000A636B207E1F70E9423010C947D010C947F
:10009000000028E12AB9DC01CB01880F991FAA1FB3
:1000A000BB1F880F991FAA1FBB1F9C01AD01220F08
:1000B000331F441F551F220F331F441F551F60E07D
:1000C0007BE187EB90E00E945B01DA01C9010197B7
:1000D000A109B109892F9A2FAB2FBB2780BD2150D1
:1000E00029B986E880BD08955F9BFECF8CB1089545
:1000F0005D9BFECF8CB908950F931F93CF93DF9331
:1001000000D0CDB7DEB7AC0141505109892B09F4BD
:100110003DC0E4E1F2E0A1E0B0E00FEF1FEF6FEFD0
:1001200073E0FA83E98389819A819C012150310926
:100130003A832983892BB9F72091640030916500B7
:100140008091610090916200820F931F90936500EF
:10015000809364008F3F23E0920761F1009721F4C0
:10016000B0936200A09361009B01281B390BC90169
:10017000959587959595879583BD809165008BBDF5
:10018000809164008ABD4150510958F68091600009
:1001900091E0980F909360005D9BFECF8CB98091A9
:1001A00060008B3761F00F900F90DF91CF911F911E
:1001B0000F9108951093620000936100D5CF81E6FE
:1001C000809360005D9BFECF8AE08CB90F900F900A
:1001D000DF91CF911F910F9108950F931F93CF93AC
:1001E000DF93C0E0D0E001E010E0C8010C2E01C0B8
:1001F000880F0A94EAF788BB85E090E00E947C00B3
:100200002196C830D10589F7DF91CF911F910F91C9
:1002100008950F931F93CF93DF93C7E0D0E001E0E1
:1002200010E0C8010C2E01C0880F0A94EAF788BBC1
:1002300084E190E00E947C00219798F7DF91CF91B4
:100240001F910F9108958FEF87BB81BB89E685BD14
:1002500083E88FBD81E08EBD8BBD88E18AB910BC7B
:100260008CE089B986E880BD84E690E00E947C003D
:1002700001E010E0C0E0D0E0C8010C2E01C0880F02
:100280000A94EAF788BB85E090E00E947C00219602
:10029000C830D10589F7C7E0D0E0C8010C2E01C0F5
:1002A000880F0A94EAF788BB84E190E00E947C0002
:1002B000219798F7DFCFA1E21A2EAA1BBB1BFD01E5
:1002C0000DC0AA1FBB1FEE1FFF1FA217B307E40735
:1002D000F50720F0A21BB30BE40BF50B661F771F8D
:1002E000881F991F1A9469F760957095809590956D
:0E02F0009B01AC01BD01CF010895F894FFCF32
:0402FE00610100009A
:00000001FF
