:100000000C942A000C9447000C9447000C94470071
:100010000C9447000C9447000C9447000C94470044
:100020000C9447000C9447000C9447000C94470034
:100030000C9447000C9447000C9447000C94470024
:100040000C9447000C9447000C9447000C94470014
:100050000C94470011241FBECFE5D8E0DEBFCDBF12
:1000600010E0A0E6B0E0E8EFF2E002C005900D92EB
:10007000A236B107D9F720E0A2E6B0E001C01D9298
:10008000A436B207E1F70E940A010C947A010C949D
:1000900000009C0188E18AB9C901A0E0B0E0880FA6
:1000A000991FAA1FBB1F880F991FAA1FBB1F9C0166
:1000B000AD01220F331F441F551F220F331F441F52
:1000C000551F60E072E18AE790E00E945801DA0172
:1000D000C9010197A109B109892F9A2FAB2FBB271D
:1000E00080BD215029B986E880BD08955F9BFECF71
:1000F0008CB108955D9BFECF8CB908950F931F932B
:10010000CF93DF9300D0CDB7DEB7AC01415051099A
:10011000892B09F43DC0E4E1F2E0A1E0B0E00FEF8B
:100120001FEF6FEF73E0FA83E98389819A819C0165
:10013000215031093A832983892BB9F72091620034
:10014000309163008091600090916100820F931F55
:1001500090936300809362008F3F23E09207F9F051
:10016000009721F4B0936100A09360009B01281BCD
:10017000390BC901959587959595879583BD809194
:1001800063008BBD809162008ABD4150510958F6D1
:100190000F900F90DF91CF911F910F9108951093C1
:1001A000610000936000E2CF0F931F93CF93DF9322
:1001B000C0E0D0E001E010E0C8010C2E01C0880FC3
:1001C0000A94EAF788BB82E390E00E947E002196C1
:1001D000C830D10589F7DF91CF911F910F91089514
:1001E0000F931F93CF93DF93C7E0D0E001E010E0BF
:1001F000C8010C2E01C0880F0A94EAF788BB82E37D
:1002000090E00E947E00219798F7DF91CF911F9197
:100210000F9108958FEF87BB81BB89E685BD83E889
:100220008FBD81E08EBD8BBD88E18AB910BC8CE0AA
:1002300089B986E880BD84E690E00E947E008AE06D
:10024000F82E01E010E081E65D9BFECF8CB98F5F58
:100250008A37D1F75D9BFECFFCB8C0E0D0E0C80183
:100260000C2E01C0880F0A94EAF788BB82E390E065
:100270000E947E002196C830D10589F781E45D9BFC
:10028000FECF8CB98F5F8A35D1F75D9BFECFFCB86E
:10029000C7E0D0E0C8010C2E01C0880F0A94EAF72D
:1002A00088BB82E390E00E947E00219798F7CBCF35
:1002B000A1E21A2EAA1BBB1BFD010DC0AA1FBB1F6A
:1002C000EE1FFF1FA217B307E407F50720F0A21BDC
:1002D000B30BE40BF50B661F771F881F991F1A9449
:1002E00069F760957095809590959B01AC01BD0173
:0802F000CF010895F894FFCF3F
:0202F800010003
:00000001FF
