:100000000C942A000C9447000C9447000C94470071
:100010000C9447000C9447000C9447000C94470044
:100020000C9447000C9447000C9449000C94470032
:100030000C9447000C9447000C9447000C94470024
:100040000C9447000C9447000C9447000C94470014
:100050000C94470011241FBECFE5D8E0DEBFCDBF12
:1000600010E0A0E6B0E0E2EDF0E002C005900D92F5
:10007000A238B107D9F720E0A2E8B0E001C01D9294
:10008000A238B207E1F70E9452000C9467000C946A
:1000900000008D918093380063954613189566276C
:1000A000A05218950FEF0093370009E0009353001A
:1000B00002E300935C0002E00093590002E0009329
:1000C0005800A0E6B0E0662740E27894FFCFF894AD
:0200D000FFCF60
:1000D2008096ABBFD1DFEAF0F2F0EADFD1BFAB9698
:1000E200806954402E20150F0D0F15202E405469A3
:0200F2007F008D
:00000001FF
