:100000000C942A000C9434000C9434000C943400AA
:100010000C9434000C9434000C9434000C94340090
:100020000C9434000C9434000C9434000C94340080
:100030000C9434000C9434000C9434000C94340070
:100040000C9434000C9434000C9434000C94340060
:100050000C94340011241FBECFE5D8E0DEBFCDBF25
:100060000E9451000C9495000C940000CF93DF93F4
:1000700000D0CDB7DEB764E172E0019768F07A8313
:10008000698329813A81A901415051095A834983E1
:10009000232BB9F7019798F70F900F90DF91CF912D
:1000A0000895CF93DF9300D0CDB7DEB788E18AB94A
:1000B00010BC8CE089B986E880BD80E281BB82BB40
:1000C0004CE251E064E172E07A83698389819A812C
:1000D0009C01215031093A832983892BB9F741507A
:1000E000510991F711BA12BA8EE081BD93E65F997A
:1000F00003C0A8955F9BFDCF8CB18130A1F0823009
:1001000059F08330A1F75F9BFECFECB1F0E05F9B2D
:10011000FECF8CB18083EBCF5F9BFECFECB1F0E0E4
:0E01200080818CB9E4CF9CB9E2CFF894FFCF78
:00000001FF
